:020000040000FA
:10060000112233006655440077889900CCBBAA00BC
:10061000112233006655440077889900CCBBAA00AC
:10062000112233006655440077889900CCBBAA009C
:10063000112233006655440077889900CCBBAA008C
:10064000112233006655440077889900CCBBAA007C
:10065000112233006655440077889900CCBBAA006C
:10066000112233006655440077889900CCBBAA005C
:10067000112233006655440077889900CCBBAA004C
:10068000112233006655440077889900CCBBAA003C
:10069000112233006655440077889900CCBBAA002C
:1006A000112233006655440077889900CCBBAA001C
:1006B000112233006655440077889900CCBBAA000C
:1006C000112233006655440077889900CCBBAA00FC
:1006D000112233006655440077889900CCBBAA00EC
:1006E000112233006655440077889900CCBBAA00DC
:1006F000112233006655440077889900CCBBAA00CC
:020000040001F9
:1057F000FFFF0000FFFF0000FFFF0000FF7F000031
:00000001FF
