:020000040000fa
:080000000002040000000000f2
:020000040000fa
:10000800f8020000c8020000ce020000d40200007e
:10001800da020000f8020000f8020000f80200000e
:10002800f8020000f8020000f8020000f8020000e0
:10003800f8020000f8020000f8020000f8020000d0
:10004800f8020000f8020000f8020000f8020000c0
:10005800f8020000f8020000f8020000f8020000b0
:10006800f8020000f8020000f8020000f8020000a0
:10007800f8020000f8020000f8020000f802000090
:10008800f8020000f8020000f8020000f802000080
:10009800f8020000f8020000f8020000f802000070
:1000a800f8020000f8020000f8020000f802000060
:1000b800f8020000f8020000f8020000f802000050
:1000c800f8020000f8020000f8020000f802000040
:1000d800f8020000f8020000f8020000f802000030
:1000e800f8020000f8020000f8020000f802000020
:1000f800f8020000f8020000f8020000f802000010
:10010800f8020000f8020000f8020000f8020000ff
:10011800f8020000f8020000f8020000f8020000ef
:10012800f8020000f8020000f8020000f8020000df
:10013800f8020000f8020000f8020000f8020000cf
:10014800f8020000f8020000f8020000f8020000bf
:10015800f8020000f8020000f8020000f8020000af
:10016800f8020000f8020000f8020000f80200009f
:10017800f8020000f8020000f8020000f80200008f
:10018800f8020000f8020000f8020000f80200007f
:10019800f8020000f8020000f8020000f80200006f
:1001a800f8020000f8020000f8020000f80200005f
:1001b800f8020000f8020000f8020000f80200004f
:1001c800f8020000f8020000f8020000f80200003f
:1001d800f8020000f8020000f8020000f80200002f
:1001e800f8020000f8020000f8020000f80200001f
:0801f800f8020000f80200000b
:020000040000fa
:10020800f8020000e0020000e6020000ec02000034
:10021800f2020000f8020000f8020000f8020000f4
:10022800f8020000f8020000f8020000f8020000de
:10023800f8020000f8020000f8020000f8020000ce
:10024800f8020000f8020000f8020000f8020000be
:10025800f8020000f8020000f8020000f8020000ae
:10026800f8020000f8020000f8020000f80200009e
:10027800f8020000f8020000f8020000f80200008e
:10028800f8020000f8020000f8020000f80200007e
:10029800f8020000f8020000f8020000f80200006e
:1002a800f8020000f8020000f8020000f80200005e
:1002b800f8020000f8020000f8020000f80200004e
:1002c800f8020000f8020000f8020000f80200003e
:1002d800f8020000f8020000f8020000f80200002e
:1002e800f8020000f8020000f8020000f80200001e
:1002f800f8020000f8020000f8020000f80200000e
:10030800f8020000f8020000f8020000f8020000fd
:10031800f8020000f8020000f8020000f8020000ed
:10032800f8020000f8020000f8020000f8020000dd
:10033800f8020000f8020000f8020000f8020000cd
:10034800f8020000f8020000f8020000f8020000bd
:10035800f8020000f8020000f8020000f8020000ad
:10036800f8020000f8020000f8020000f80200009d
:10037800f8020000f8020000f8020000f80200008d
:10038800f8020000f8020000f8020000f80200007d
:10039800f8020000f8020000f8020000f80200006d
:1003a800f8020000f8020000f8020000f80200005d
:1003b800f8020000f8020000f8020000f80200004d
:1003c800f8020000f8020000f8020000f80200003d
:1003d800f8020000f8020000f8020000f80200002d
:1003e800f8020000f8020000f8020000f80200001d
:0803f800f8020000f802000009
:020000040000fa
:100400000f8020000e7f22000e01880000000000f7
:100410000c00070040562000010020000f000700dc
:10042000000020000000e000020032000000020096
:100430000000000082040200000000000040da001a
:100440000000fe00000020000000e000020032007a
:10045000000020009001880000000600a102880032
:10046000800078000000eb001a003700e2804000b6
:1004700054a0b4009101ba00e280400054a0b4003e
:100480009102ba00e280400054a0b4000002eb00e8
:10049000472bde00f507b200a6018800602ce100c2
:1004a00008003a000049eb000201e80002003900b0
:1004b0003420ec0002f0a0008301e900f9ff3e00c7
:1004c000040037006128e100010032000082eb00e7
:1004d000040007001101ba000200e000e3ff3a0047
:1004e0000000060004d0a300e20f49001c00390000
:1004f000810278003549ba000201e80002003900a3
:100500003420ec0002f0a0008301e9000f0032006b
:100510002549ba000201e800020039003420ec004d
:1005200002f0a0008301e900080032000400e000ae
:100530000600320015c9ba000201e80002003900c5
:100540003420ec0002f0a0008301e9008180e80083
:1005500054a0b4000300e000e2ff3a0000000600ef
:100560009102ba00055978008301e900f7ff3200d3
:10057000c82ade00055978008301e900f3ff320044
:100580000400e000f1ff320011d9ba00eeff37009d
:100590000000fa008020a900ffff37000000fa00e9
:1005a0008060a900ffff37000000fa008040a9002a
:1005b000ffff37000000fa008080a900ffff37002e
:1005c0000000fa008020a900ffff37000000fa00b9
:1005d0008060a900ffff37000000fa008040a900fa
:1005e000ffff37000000fa008080a900ffff3700fe
:0805f0000000fa00ffff3700d4
:020000040000fa
:1005f8000800fa0020079800614798008300070068
:100608000040eb00004f7800010037001e4fe80063
:100618001e407800f34f5000fcff340000c8b300c0
:1006280097000700204798006e409000e04f500068
:1006380014003a002e0090009040780040c7b300a4
:1006480080cf50000a0032002e00900090407800c1
:1006580090c7b30080cf5000050032002e009000f4
:100668009040780060c2b30080cf500003003a0089
:1006780030c0b300604798000200370040c0b300a4
:10068800604798000040eb00004f780013003700e7
:100698000040eb0010479800030037001e40900010
:1006a8000040e800104798001e409000f34f5000ab
:1006b800faff34001e00fb00ae00900000804000ee
:1006c800104078006e000700204798002e409000e8
:1006d8000000fb00201188001e4fe8006e409000cb
:1006e8009e40780080cf5000e9ff35000040eb00c5
:1006f8000080fa00000006000600fa0010079800c3
:10070800414798002f00070010c8b3005c0007009d
:10071800104798000040eb00004f780011003700a8
:10072800310007009e00fb004e4090000000fb00d7
:100738000000e900808f500002003a0046000700e0
:10074800010037003a0007001e00fb009e009000e1
:1007580080804000001080000040780080487800c9
:100768001e4fe8004e4090009e40780080cf500019
:10077800ebff35005d0007000040eb000080fa0049
:10078800000006000000fa00000000000300370027
:100798000000000001003700000000003010800059
:1007a8007f006000e00f5000f9ff3a004010800021
:1007b80064006000e00f5000f7ff3a000080fa0084
:1007c800000006000000fa000622a8000000000051
:1007d8003010800062006000e00f5000fcff3a001b
:1007e8000080fa00000006000000fa000662a80077
:1007f800000000003010800068006000e00f50002a
:10080800fcff3a000080fa00000006000000fa0031
:100818000602a8000000000030108000610060009f
:10082800e00f5000fcff3a000080fa0000000600cc
:100838000000fa0006a2a9000682a8000000000035
:100848003010800070006000e00f5000fcff3a009c
:100858000080fa00000006000000fa0006a2a800c6
:100868000682a800000000003010800070006000c0
:10087800e00f5000fcff3a000080fa00000006007c
:100888000200fa00004f78001e00fb0010108800dc
:10089800411080000040200000806000e00f500000
:1008a8000200320050c5b3000e00370000000000ff
:1008b800411080000000240000806000e00f50001c
:1008c800fbff3a0041108000000028000080600013
:1008d800e00f500002003200a0cab3000100370048
:1008e80010c4b3000080fa00000006000000fa00ff
:1008f8000642a8000080fa00000006003400fa0052
:100908000040eb00104798006a0007005d000700f0
:100918000040eb00004f78000040eb0020479800b3
:10092800d222a800d242a800d262a800d282a8008f
:10093800c322a800c342a800c3c2a800c3e2a800fb
:10094800e422a800e442a800e4a2a800e402a90066
:10095800e462a900e482a800e4c2a900e4e2a800d5
:10096800e502a800e522a900ed82a900e002a9009d
:10097800e062a900e082a900e0c2a900e0e2a900c3
:10098800e102a900e122a900e982a900e022a90068
:10099800e042a900e0a2a900d022a900d042a90003
:1009a800d062a900d082a900c122a900c142a90031
:1009b800c1c2a900c1e2a9000000eb00c03a88004a
:1009c8000000eb00c03a8800c03a8000c03a8000be
:1009d8000040eb00004f780017003700c522a80040
:1009e800c542a900c5c2a900c5e2a900d422a90030
:1009f800d442a800d462a900d482a8000020210013
:100a0800a107200011000700c522a900c542a800bf
:100a1800c5c2a800c5e2a800d422a800d442a900f3
:100a2800d462a800d482a90000202100a1072000d8
:100a3800060007001e4fe80070c2b3009e40780011
:0c0a480080cf5000e5ff3400e1ff3700d4
:020000040000fa
:100a5400f03fb1000180b10006003500ee0309004b
:100a640000000000403fb1000180b100fbff3d00e9
:100a74001000b000203fb0000200350000800900e3
:080a8400000000000000060064
:020000040000fa
:100a8c000000fa00213a8000f08f2f0000806000f7
:100a9c00203a880060042000103a8800700520007d
:100aac00103a880042c7a9000080fa000000060036
:0c0abc000000fa000080fa0000000600b4
:020000040000fa
:040ac800000000002a
:020000040000fa
:020000040001f9
:0457f0003fff000077
:020000040000fa
:020000040001f9
:0457f4007fef000043
:020000040000fa
:020000040001f9
:0457f800a7f900000d
:020000040000fa
:020000040001f9
:0457fc00df3f00008b
:00000001FF
